{
  "_format": "hh-sol-artifact-1",
  "contractName": "MyToken",
  "sourceName": "contracts/Token.sol",
  "abi": [
    {
      "inputs": [],
      "stateMutability": "nonpayable",
      "type": "constructor"
    },
    {
      "anonymous": false,
      "inputs": [
        {
          "indexed": true,
          "internalType": "address",
          "name": "owner",
          "type": "address"
        },
        {
          "indexed": true,
          "internalType": "address",
          "name": "approved",
          "type": "address"
        },
        {
          "indexed": true,
          "internalType": "uint256",
          "name": "tokenId",
          "type": "uint256"
        }
      ],
      "name": "Approval",
      "type": "event"
    },
    {
      "anonymous": false,
      "inputs": [
        {
          "indexed": true,
          "internalType": "address",
          "name": "owner",
          "type": "address"
        },
        {
          "indexed": true,
          "internalType": "address",
          "name": "operator",
          "type": "address"
        },
        {
          "indexed": false,
          "internalType": "bool",
          "name": "approved",
          "type": "bool"
        }
      ],
      "name": "ApprovalForAll",
      "type": "event"
    },
    {
      "anonymous": false,
      "inputs": [
        {
          "indexed": true,
          "internalType": "address",
          "name": "previousOwner",
          "type": "address"
        },
        {
          "indexed": true,
          "internalType": "address",
          "name": "newOwner",
          "type": "address"
        }
      ],
      "name": "OwnershipTransferred",
      "type": "event"
    },
    {
      "anonymous": false,
      "inputs": [
        {
          "indexed": true,
          "internalType": "address",
          "name": "from",
          "type": "address"
        },
        {
          "indexed": true,
          "internalType": "address",
          "name": "to",
          "type": "address"
        },
        {
          "indexed": true,
          "internalType": "uint256",
          "name": "tokenId",
          "type": "uint256"
        }
      ],
      "name": "Transfer",
      "type": "event"
    },
    {
      "inputs": [
        {
          "internalType": "address",
          "name": "to",
          "type": "address"
        },
        {
          "internalType": "uint256",
          "name": "tokenId",
          "type": "uint256"
        }
      ],
      "name": "approve",
      "outputs": [],
      "stateMutability": "nonpayable",
      "type": "function"
    },
    {
      "inputs": [
        {
          "internalType": "address",
          "name": "owner",
          "type": "address"
        }
      ],
      "name": "balanceOf",
      "outputs": [
        {
          "internalType": "uint256",
          "name": "",
          "type": "uint256"
        }
      ],
      "stateMutability": "view",
      "type": "function"
    },
    {
      "inputs": [
        {
          "internalType": "uint256",
          "name": "tokenId",
          "type": "uint256"
        }
      ],
      "name": "getApproved",
      "outputs": [
        {
          "internalType": "address",
          "name": "",
          "type": "address"
        }
      ],
      "stateMutability": "view",
      "type": "function"
    },
    {
      "inputs": [
        {
          "internalType": "address",
          "name": "owner",
          "type": "address"
        },
        {
          "internalType": "address",
          "name": "operator",
          "type": "address"
        }
      ],
      "name": "isApprovedForAll",
      "outputs": [
        {
          "internalType": "bool",
          "name": "",
          "type": "bool"
        }
      ],
      "stateMutability": "view",
      "type": "function"
    },
    {
      "inputs": [],
      "name": "name",
      "outputs": [
        {
          "internalType": "string",
          "name": "",
          "type": "string"
        }
      ],
      "stateMutability": "view",
      "type": "function"
    },
    {
      "inputs": [],
      "name": "owner",
      "outputs": [
        {
          "internalType": "address",
          "name": "",
          "type": "address"
        }
      ],
      "stateMutability": "view",
      "type": "function"
    },
    {
      "inputs": [
        {
          "internalType": "uint256",
          "name": "tokenId",
          "type": "uint256"
        }
      ],
      "name": "ownerOf",
      "outputs": [
        {
          "internalType": "address",
          "name": "",
          "type": "address"
        }
      ],
      "stateMutability": "view",
      "type": "function"
    },
    {
      "inputs": [],
      "name": "renounceOwnership",
      "outputs": [],
      "stateMutability": "nonpayable",
      "type": "function"
    },
    {
      "inputs": [
        {
          "internalType": "address",
          "name": "to",
          "type": "address"
        },
        {
          "internalType": "uint256",
          "name": "tokenId",
          "type": "uint256"
        }
      ],
      "name": "safeMint",
      "outputs": [],
      "stateMutability": "nonpayable",
      "type": "function"
    },
    {
      "inputs": [
        {
          "internalType": "address",
          "name": "from",
          "type": "address"
        },
        {
          "internalType": "address",
          "name": "to",
          "type": "address"
        },
        {
          "internalType": "uint256",
          "name": "tokenId",
          "type": "uint256"
        }
      ],
      "name": "safeTransferFrom",
      "outputs": [],
      "stateMutability": "nonpayable",
      "type": "function"
    },
    {
      "inputs": [
        {
          "internalType": "address",
          "name": "from",
          "type": "address"
        },
        {
          "internalType": "address",
          "name": "to",
          "type": "address"
        },
        {
          "internalType": "uint256",
          "name": "tokenId",
          "type": "uint256"
        },
        {
          "internalType": "bytes",
          "name": "data",
          "type": "bytes"
        }
      ],
      "name": "safeTransferFrom",
      "outputs": [],
      "stateMutability": "nonpayable",
      "type": "function"
    },
    {
      "inputs": [
        {
          "internalType": "address",
          "name": "operator",
          "type": "address"
        },
        {
          "internalType": "bool",
          "name": "approved",
          "type": "bool"
        }
      ],
      "name": "setApprovalForAll",
      "outputs": [],
      "stateMutability": "nonpayable",
      "type": "function"
    },
    {
      "inputs": [
        {
          "internalType": "bytes4",
          "name": "interfaceId",
          "type": "bytes4"
        }
      ],
      "name": "supportsInterface",
      "outputs": [
        {
          "internalType": "bool",
          "name": "",
          "type": "bool"
        }
      ],
      "stateMutability": "view",
      "type": "function"
    },
    {
      "inputs": [],
      "name": "symbol",
      "outputs": [
        {
          "internalType": "string",
          "name": "",
          "type": "string"
        }
      ],
      "stateMutability": "view",
      "type": "function"
    },
    {
      "inputs": [
        {
          "internalType": "uint256",
          "name": "tokenId",
          "type": "uint256"
        }
      ],
      "name": "tokenURI",
      "outputs": [
        {
          "internalType": "string",
          "name": "",
          "type": "string"
        }
      ],
      "stateMutability": "view",
      "type": "function"
    },
    {
      "inputs": [
        {
          "internalType": "address",
          "name": "from",
          "type": "address"
        },
        {
          "internalType": "address",
          "name": "to",
          "type": "address"
        },
        {
          "internalType": "uint256",
          "name": "tokenId",
          "type": "uint256"
        }
      ],
      "name": "transferFrom",
      "outputs": [],
      "stateMutability": "nonpayable",
      "type": "function"
    },
    {
      "inputs": [
        {
          "internalType": "address",
          "name": "newOwner",
          "type": "address"
        }
      ],
      "name": "transferOwnership",
      "outputs": [],
      "stateMutability": "nonpayable",
      "type": "function"
    }
  ],
  "bytecode": "0x60806040523480156200001157600080fd5b506040518060400160405280600881526020017f466f6f64204e46540000000000000000000000000000000000000000000000008152506040518060400160405280600381526020017f4644540000000000000000000000000000000000000000000000000000000000815250816000908051906020019062000096929190620001a6565b508060019080519060200190620000af929190620001a6565b505050620000d2620000c6620000d860201b60201c565b620000e060201b60201c565b620002bb565b600033905090565b6000600660009054906101000a900473ffffffffffffffffffffffffffffffffffffffff16905081600660006101000a81548173ffffffffffffffffffffffffffffffffffffffff021916908373ffffffffffffffffffffffffffffffffffffffff1602179055508173ffffffffffffffffffffffffffffffffffffffff168173ffffffffffffffffffffffffffffffffffffffff167f8be0079c531659141344cd1fd0a4f28419497f9722a3daafe3b4186f6b6457e060405160405180910390a35050565b828054620001b49062000285565b90600052602060002090601f016020900481019282620001d8576000855562000224565b82601f10620001f357805160ff191683800117855562000224565b8280016001018555821562000224579182015b828111156200022357825182559160200191906001019062000206565b5b50905062000233919062000237565b5090565b5b808211156200025257600081600090555060010162000238565b5090565b7f4e487b7100000000000000000000000000000000000000000000000000000000600052602260045260246000fd5b600060028204905060018216806200029e57607f821691505b60208210811415620002b557620002b462000256565b5b50919050565b6128b380620002cb6000396000f3fe608060405234801561001057600080fd5b506004361061010b5760003560e01c8063715018a6116100a2578063a22cb46511610071578063a22cb465146102a4578063b88d4fde146102c0578063c87b56dd146102dc578063e985e9c51461030c578063f2fde38b1461033c5761010b565b8063715018a6146102425780638da5cb5b1461024c57806395d89b411461026a578063a1448194146102885761010b565b806323b872dd116100de57806323b872dd146101aa57806342842e0e146101c65780636352211e146101e257806370a08231146102125761010b565b806301ffc9a71461011057806306fdde0314610140578063081812fc1461015e578063095ea7b31461018e575b600080fd5b61012a60048036038101906101259190611a63565b610358565b6040516101379190611aab565b60405180910390f35b61014861043a565b6040516101559190611b5f565b60405180910390f35b61017860048036038101906101739190611bb7565b6104cc565b6040516101859190611c25565b60405180910390f35b6101a860048036038101906101a39190611c6c565b610512565b005b6101c460048036038101906101bf9190611cac565b61062a565b005b6101e060048036038101906101db9190611cac565b61068a565b005b6101fc60048036038101906101f79190611bb7565b6106aa565b6040516102099190611c25565b60405180910390f35b61022c60048036038101906102279190611cff565b610731565b6040516102399190611d3b565b60405180910390f35b61024a6107e9565b005b6102546107fd565b6040516102619190611c25565b60405180910390f35b610272610827565b60405161027f9190611b5f565b60405180910390f35b6102a2600480360381019061029d9190611c6c565b6108b9565b005b6102be60048036038101906102b99190611d82565b6108c7565b005b6102da60048036038101906102d59190611ef7565b6108dd565b005b6102f660048036038101906102f19190611bb7565b61093f565b6040516103039190611b5f565b60405180910390f35b61032660048036038101906103219190611f7a565b6109a7565b6040516103339190611aab565b60405180910390f35b61035660048036038101906103519190611cff565b610a3b565b005b60007f80ac58cd000000000000000000000000000000000000000000000000000000007bffffffffffffffffffffffffffffffffffffffffffffffffffffffff1916827bffffffffffffffffffffffffffffffffffffffffffffffffffffffff1916148061042357507f5b5e139f000000000000000000000000000000000000000000000000000000007bffffffffffffffffffffffffffffffffffffffffffffffffffffffff1916827bffffffffffffffffffffffffffffffffffffffffffffffffffffffff1916145b80610433575061043282610abf565b5b9050919050565b60606000805461044990611fe9565b80601f016020809104026020016040519081016040528092919081815260200182805461047590611fe9565b80156104c25780601f10610497576101008083540402835291602001916104c2565b820191906000526020600020905b8154815290600101906020018083116104a557829003601f168201915b5050505050905090565b60006104d782610b29565b6004600083815260200190815260200160002060009054906101000a900473ffffffffffffffffffffffffffffffffffffffff169050919050565b600061051d826106aa565b90508073ffffffffffffffffffffffffffffffffffffffff168373ffffffffffffffffffffffffffffffffffffffff16141561058e576040517f08c379a00000000000000000000000000000000000000000000000000000000081526004016105859061208d565b60405180910390fd5b8073ffffffffffffffffffffffffffffffffffffffff166105ad610b74565b73ffffffffffffffffffffffffffffffffffffffff1614806105dc57506105db816105d6610b74565b6109a7565b5b61061b576040517f08c379a00000000000000000000000000000000000000000000000000000000081526004016106129061211f565b60405180910390fd5b6106258383610b7c565b505050565b61063b610635610b74565b82610c35565b61067a576040517f08c379a0000000000000000000000000000000000000000000000000000000008152600401610671906121b1565b60405180910390fd5b610685838383610cca565b505050565b6106a5838383604051806020016040528060008152506108dd565b505050565b6000806106b683610fc4565b9050600073ffffffffffffffffffffffffffffffffffffffff168173ffffffffffffffffffffffffffffffffffffffff161415610728576040517f08c379a000000000000000000000000000000000000000000000000000000000815260040161071f9061221d565b60405180910390fd5b80915050919050565b60008073ffffffffffffffffffffffffffffffffffffffff168273ffffffffffffffffffffffffffffffffffffffff1614156107a2576040517f08c379a0000000000000000000000000000000000000000000000000000000008152600401610799906122af565b60405180910390fd5b600360008373ffffffffffffffffffffffffffffffffffffffff1673ffffffffffffffffffffffffffffffffffffffff168152602001908152602001600020549050919050565b6107f1611001565b6107fb600061107f565b565b6000600660009054906101000a900473ffffffffffffffffffffffffffffffffffffffff16905090565b60606001805461083690611fe9565b80601f016020809104026020016040519081016040528092919081815260200182805461086290611fe9565b80156108af5780601f10610884576101008083540402835291602001916108af565b820191906000526020600020905b81548152906001019060200180831161089257829003601f168201915b5050505050905090565b6108c38282611145565b5050565b6108d96108d2610b74565b8383611163565b5050565b6108ee6108e8610b74565b83610c35565b61092d576040517f08c379a0000000000000000000000000000000000000000000000000000000008152600401610924906121b1565b60405180910390fd5b610939848484846112d0565b50505050565b606061094a82610b29565b600061095461132c565b90506000815111610974576040518060200160405280600081525061099f565b8061097e8461134c565b60405160200161098f92919061230b565b6040516020818303038152906040525b915050919050565b6000600560008473ffffffffffffffffffffffffffffffffffffffff1673ffffffffffffffffffffffffffffffffffffffff16815260200190815260200160002060008373ffffffffffffffffffffffffffffffffffffffff1673ffffffffffffffffffffffffffffffffffffffff16815260200190815260200160002060009054906101000a900460ff16905092915050565b610a43611001565b600073ffffffffffffffffffffffffffffffffffffffff168173ffffffffffffffffffffffffffffffffffffffff161415610ab3576040517f08c379a0000000000000000000000000000000000000000000000000000000008152600401610aaa906123a1565b60405180910390fd5b610abc8161107f565b50565b60007f01ffc9a7000000000000000000000000000000000000000000000000000000007bffffffffffffffffffffffffffffffffffffffffffffffffffffffff1916827bffffffffffffffffffffffffffffffffffffffffffffffffffffffff1916149050919050565b610b3281611424565b610b71576040517f08c379a0000000000000000000000000000000000000000000000000000000008152600401610b689061221d565b60405180910390fd5b50565b600033905090565b816004600083815260200190815260200160002060006101000a81548173ffffffffffffffffffffffffffffffffffffffff021916908373ffffffffffffffffffffffffffffffffffffffff160217905550808273ffffffffffffffffffffffffffffffffffffffff16610bef836106aa565b73ffffffffffffffffffffffffffffffffffffffff167f8c5be1e5ebec7d5bd14f71427d1e84f3dd0314c0f7b2291e5b200ac8c7c3b92560405160405180910390a45050565b600080610c41836106aa565b90508073ffffffffffffffffffffffffffffffffffffffff168473ffffffffffffffffffffffffffffffffffffffff161480610c835750610c8281856109a7565b5b80610cc157508373ffffffffffffffffffffffffffffffffffffffff16610ca9846104cc565b73ffffffffffffffffffffffffffffffffffffffff16145b91505092915050565b8273ffffffffffffffffffffffffffffffffffffffff16610cea826106aa565b73ffffffffffffffffffffffffffffffffffffffff1614610d40576040517f08c379a0000000000000000000000000000000000000000000000000000000008152600401610d3790612433565b60405180910390fd5b600073ffffffffffffffffffffffffffffffffffffffff168273ffffffffffffffffffffffffffffffffffffffff161415610db0576040517f08c379a0000000000000000000000000000000000000000000000000000000008152600401610da7906124c5565b60405180910390fd5b610dbd8383836001611465565b8273ffffffffffffffffffffffffffffffffffffffff16610ddd826106aa565b73ffffffffffffffffffffffffffffffffffffffff1614610e33576040517f08c379a0000000000000000000000000000000000000000000000000000000008152600401610e2a90612433565b60405180910390fd5b6004600082815260200190815260200160002060006101000a81549073ffffffffffffffffffffffffffffffffffffffff02191690556001600360008573ffffffffffffffffffffffffffffffffffffffff1673ffffffffffffffffffffffffffffffffffffffff168152602001908152602001600020600082825403925050819055506001600360008473ffffffffffffffffffffffffffffffffffffffff1673ffffffffffffffffffffffffffffffffffffffff16815260200190815260200160002060008282540192505081905550816002600083815260200190815260200160002060006101000a81548173ffffffffffffffffffffffffffffffffffffffff021916908373ffffffffffffffffffffffffffffffffffffffff160217905550808273ffffffffffffffffffffffffffffffffffffffff168473ffffffffffffffffffffffffffffffffffffffff167fddf252ad1be2c89b69c2b068fc378daa952ba7f163c4a11628f55a4df523b3ef60405160405180910390a4610fbf838383600161146b565b505050565b60006002600083815260200190815260200160002060009054906101000a900473ffffffffffffffffffffffffffffffffffffffff169050919050565b611009610b74565b73ffffffffffffffffffffffffffffffffffffffff166110276107fd565b73ffffffffffffffffffffffffffffffffffffffff161461107d576040517f08c379a000000000000000000000000000000000000000000000000000000000815260040161107490612531565b60405180910390fd5b565b6000600660009054906101000a900473ffffffffffffffffffffffffffffffffffffffff16905081600660006101000a81548173ffffffffffffffffffffffffffffffffffffffff021916908373ffffffffffffffffffffffffffffffffffffffff1602179055508173ffffffffffffffffffffffffffffffffffffffff168173ffffffffffffffffffffffffffffffffffffffff167f8be0079c531659141344cd1fd0a4f28419497f9722a3daafe3b4186f6b6457e060405160405180910390a35050565b61115f828260405180602001604052806000815250611471565b5050565b8173ffffffffffffffffffffffffffffffffffffffff168373ffffffffffffffffffffffffffffffffffffffff1614156111d2576040517f08c379a00000000000000000000000000000000000000000000000000000000081526004016111c99061259d565b60405180910390fd5b80600560008573ffffffffffffffffffffffffffffffffffffffff1673ffffffffffffffffffffffffffffffffffffffff16815260200190815260200160002060008473ffffffffffffffffffffffffffffffffffffffff1673ffffffffffffffffffffffffffffffffffffffff16815260200190815260200160002060006101000a81548160ff0219169083151502179055508173ffffffffffffffffffffffffffffffffffffffff168373ffffffffffffffffffffffffffffffffffffffff167f17307eab39ab6107e8899845ad3d59bd9653f200f220920489ca2b5937696c31836040516112c39190611aab565b60405180910390a3505050565b6112db848484610cca565b6112e7848484846114cc565b611326576040517f08c379a000000000000000000000000000000000000000000000000000000000815260040161131d9061262f565b60405180910390fd5b50505050565b606060405180608001604052806044815260200161283a60449139905090565b60606000600161135b84611663565b01905060008167ffffffffffffffff81111561137a57611379611dcc565b5b6040519080825280601f01601f1916602001820160405280156113ac5781602001600182028036833780820191505090505b509050600082602001820190505b600115611419578080600190039150507f3031323334353637383961626364656600000000000000000000000000000000600a86061a8153600a85816114035761140261264f565b5b049450600085141561141457611419565b6113ba565b819350505050919050565b60008073ffffffffffffffffffffffffffffffffffffffff1661144683610fc4565b73ffffffffffffffffffffffffffffffffffffffff1614159050919050565b50505050565b50505050565b61147b83836117b6565b61148860008484846114cc565b6114c7576040517f08c379a00000000000000000000000000000000000000000000000000000000081526004016114be9061262f565b60405180910390fd5b505050565b60006114ed8473ffffffffffffffffffffffffffffffffffffffff166119d4565b15611656578373ffffffffffffffffffffffffffffffffffffffff1663150b7a02611516610b74565b8786866040518563ffffffff1660e01b815260040161153894939291906126d3565b602060405180830381600087803b15801561155257600080fd5b505af192505050801561158357506040513d601f19601f820116820180604052508101906115809190612734565b60015b611606573d80600081146115b3576040519150601f19603f3d011682016040523d82523d6000602084013e6115b8565b606091505b506000815114156115fe576040517f08c379a00000000000000000000000000000000000000000000000000000000081526004016115f59061262f565b60405180910390fd5b805181602001fd5b63150b7a0260e01b7bffffffffffffffffffffffffffffffffffffffffffffffffffffffff1916817bffffffffffffffffffffffffffffffffffffffffffffffffffffffff19161491505061165b565b600190505b949350505050565b600080600090507a184f03e93ff9f4daa797ed6e38ed64bf6a1f01000000000000000083106116c1577a184f03e93ff9f4daa797ed6e38ed64bf6a1f01000000000000000083816116b7576116b661264f565b5b0492506040810190505b6d04ee2d6d415b85acef810000000083106116fe576d04ee2d6d415b85acef810000000083816116f4576116f361264f565b5b0492506020810190505b662386f26fc10000831061172d57662386f26fc1000083816117235761172261264f565b5b0492506010810190505b6305f5e1008310611756576305f5e100838161174c5761174b61264f565b5b0492506008810190505b612710831061177b5761271083816117715761177061264f565b5b0492506004810190505b6064831061179e57606483816117945761179361264f565b5b0492506002810190505b600a83106117ad576001810190505b80915050919050565b600073ffffffffffffffffffffffffffffffffffffffff168273ffffffffffffffffffffffffffffffffffffffff161415611826576040517f08c379a000000000000000000000000000000000000000000000000000000000815260040161181d906127ad565b60405180910390fd5b61182f81611424565b1561186f576040517f08c379a000000000000000000000000000000000000000000000000000000000815260040161186690612819565b60405180910390fd5b61187d600083836001611465565b61188681611424565b156118c6576040517f08c379a00000000000000000000000000000000000000000000000000000000081526004016118bd90612819565b60405180910390fd5b6001600360008473ffffffffffffffffffffffffffffffffffffffff1673ffffffffffffffffffffffffffffffffffffffff16815260200190815260200160002060008282540192505081905550816002600083815260200190815260200160002060006101000a81548173ffffffffffffffffffffffffffffffffffffffff021916908373ffffffffffffffffffffffffffffffffffffffff160217905550808273ffffffffffffffffffffffffffffffffffffffff16600073ffffffffffffffffffffffffffffffffffffffff167fddf252ad1be2c89b69c2b068fc378daa952ba7f163c4a11628f55a4df523b3ef60405160405180910390a46119d060008383600161146b565b5050565b6000808273ffffffffffffffffffffffffffffffffffffffff163b119050919050565b6000604051905090565b600080fd5b600080fd5b60007fffffffff0000000000000000000000000000000000000000000000000000000082169050919050565b611a4081611a0b565b8114611a4b57600080fd5b50565b600081359050611a5d81611a37565b92915050565b600060208284031215611a7957611a78611a01565b5b6000611a8784828501611a4e565b91505092915050565b60008115159050919050565b611aa581611a90565b82525050565b6000602082019050611ac06000830184611a9c565b92915050565b600081519050919050565b600082825260208201905092915050565b60005b83811015611b00578082015181840152602081019050611ae5565b83811115611b0f576000848401525b50505050565b6000601f19601f8301169050919050565b6000611b3182611ac6565b611b3b8185611ad1565b9350611b4b818560208601611ae2565b611b5481611b15565b840191505092915050565b60006020820190508181036000830152611b798184611b26565b905092915050565b6000819050919050565b611b9481611b81565b8114611b9f57600080fd5b50565b600081359050611bb181611b8b565b92915050565b600060208284031215611bcd57611bcc611a01565b5b6000611bdb84828501611ba2565b91505092915050565b600073ffffffffffffffffffffffffffffffffffffffff82169050919050565b6000611c0f82611be4565b9050919050565b611c1f81611c04565b82525050565b6000602082019050611c3a6000830184611c16565b92915050565b611c4981611c04565b8114611c5457600080fd5b50565b600081359050611c6681611c40565b92915050565b60008060408385031215611c8357611c82611a01565b5b6000611c9185828601611c57565b9250506020611ca285828601611ba2565b9150509250929050565b600080600060608486031215611cc557611cc4611a01565b5b6000611cd386828701611c57565b9350506020611ce486828701611c57565b9250506040611cf586828701611ba2565b9150509250925092565b600060208284031215611d1557611d14611a01565b5b6000611d2384828501611c57565b91505092915050565b611d3581611b81565b82525050565b6000602082019050611d506000830184611d2c565b92915050565b611d5f81611a90565b8114611d6a57600080fd5b50565b600081359050611d7c81611d56565b92915050565b60008060408385031215611d9957611d98611a01565b5b6000611da785828601611c57565b9250506020611db885828601611d6d565b9150509250929050565b600080fd5b600080fd5b7f4e487b7100000000000000000000000000000000000000000000000000000000600052604160045260246000fd5b611e0482611b15565b810181811067ffffffffffffffff82111715611e2357611e22611dcc565b5b80604052505050565b6000611e366119f7565b9050611e428282611dfb565b919050565b600067ffffffffffffffff821115611e6257611e61611dcc565b5b611e6b82611b15565b9050602081019050919050565b82818337600083830152505050565b6000611e9a611e9584611e47565b611e2c565b905082815260208101848484011115611eb657611eb5611dc7565b5b611ec1848285611e78565b509392505050565b600082601f830112611ede57611edd611dc2565b5b8135611eee848260208601611e87565b91505092915050565b60008060008060808587031215611f1157611f10611a01565b5b6000611f1f87828801611c57565b9450506020611f3087828801611c57565b9350506040611f4187828801611ba2565b925050606085013567ffffffffffffffff811115611f6257611f61611a06565b5b611f6e87828801611ec9565b91505092959194509250565b60008060408385031215611f9157611f90611a01565b5b6000611f9f85828601611c57565b9250506020611fb085828601611c57565b9150509250929050565b7f4e487b7100000000000000000000000000000000000000000000000000000000600052602260045260246000fd5b6000600282049050600182168061200157607f821691505b6020821081141561201557612014611fba565b5b50919050565b7f4552433732313a20617070726f76616c20746f2063757272656e74206f776e6560008201527f7200000000000000000000000000000000000000000000000000000000000000602082015250565b6000612077602183611ad1565b91506120828261201b565b604082019050919050565b600060208201905081810360008301526120a68161206a565b9050919050565b7f4552433732313a20617070726f76652063616c6c6572206973206e6f7420746f60008201527f6b656e206f776e6572206f7220617070726f76656420666f7220616c6c000000602082015250565b6000612109603d83611ad1565b9150612114826120ad565b604082019050919050565b60006020820190508181036000830152612138816120fc565b9050919050565b7f4552433732313a2063616c6c6572206973206e6f7420746f6b656e206f776e6560008201527f72206f7220617070726f76656400000000000000000000000000000000000000602082015250565b600061219b602d83611ad1565b91506121a68261213f565b604082019050919050565b600060208201905081810360008301526121ca8161218e565b9050919050565b7f4552433732313a20696e76616c696420746f6b656e2049440000000000000000600082015250565b6000612207601883611ad1565b9150612212826121d1565b602082019050919050565b60006020820190508181036000830152612236816121fa565b9050919050565b7f4552433732313a2061646472657373207a65726f206973206e6f74206120766160008201527f6c6964206f776e65720000000000000000000000000000000000000000000000602082015250565b6000612299602983611ad1565b91506122a48261223d565b604082019050919050565b600060208201905081810360008301526122c88161228c565b9050919050565b600081905092915050565b60006122e582611ac6565b6122ef81856122cf565b93506122ff818560208601611ae2565b80840191505092915050565b600061231782856122da565b915061232382846122da565b91508190509392505050565b7f4f776e61626c653a206e6577206f776e657220697320746865207a65726f206160008201527f6464726573730000000000000000000000000000000000000000000000000000602082015250565b600061238b602683611ad1565b91506123968261232f565b604082019050919050565b600060208201905081810360008301526123ba8161237e565b9050919050565b7f4552433732313a207472616e736665722066726f6d20696e636f72726563742060008201527f6f776e6572000000000000000000000000000000000000000000000000000000602082015250565b600061241d602583611ad1565b9150612428826123c1565b604082019050919050565b6000602082019050818103600083015261244c81612410565b9050919050565b7f4552433732313a207472616e7366657220746f20746865207a65726f2061646460008201527f7265737300000000000000000000000000000000000000000000000000000000602082015250565b60006124af602483611ad1565b91506124ba82612453565b604082019050919050565b600060208201905081810360008301526124de816124a2565b9050919050565b7f4f776e61626c653a2063616c6c6572206973206e6f7420746865206f776e6572600082015250565b600061251b602083611ad1565b9150612526826124e5565b602082019050919050565b6000602082019050818103600083015261254a8161250e565b9050919050565b7f4552433732313a20617070726f766520746f2063616c6c657200000000000000600082015250565b6000612587601983611ad1565b915061259282612551565b602082019050919050565b600060208201905081810360008301526125b68161257a565b9050919050565b7f4552433732313a207472616e7366657220746f206e6f6e20455243373231526560008201527f63656976657220696d706c656d656e7465720000000000000000000000000000602082015250565b6000612619603283611ad1565b9150612624826125bd565b604082019050919050565b600060208201905081810360008301526126488161260c565b9050919050565b7f4e487b7100000000000000000000000000000000000000000000000000000000600052601260045260246000fd5b600081519050919050565b600082825260208201905092915050565b60006126a58261267e565b6126af8185612689565b93506126bf818560208601611ae2565b6126c881611b15565b840191505092915050565b60006080820190506126e86000830187611c16565b6126f56020830186611c16565b6127026040830185611d2c565b8181036060830152612714818461269a565b905095945050505050565b60008151905061272e81611a37565b92915050565b60006020828403121561274a57612749611a01565b5b60006127588482850161271f565b91505092915050565b7f4552433732313a206d696e7420746f20746865207a65726f2061646472657373600082015250565b6000612797602083611ad1565b91506127a282612761565b602082019050919050565b600060208201905081810360008301526127c68161278a565b9050919050565b7f4552433732313a20746f6b656e20616c7265616479206d696e74656400000000600082015250565b6000612803601c83611ad1565b915061280e826127cd565b602082019050919050565b60006020820190508181036000830152612832816127f6565b905091905056fe68747470733a2f2f697066732e696f2f697066732f516d5547396b454645547448675345794c393972757133544c396463693275417a63484c357061434373645358652fa264697066735822122092b7b54ce62cc77d4c4e087169222d5f18a3d21cbb6598d77196009aa536983b64736f6c63430008090033",
  "linkReferences": {},
  "deployedLinkReferences": {}
}